{
  "contractName": "FlashloanUser",
  "abi": [
    {
      "inputs": [
        {
          "internalType": "address",
          "name": "flashloan",
          "type": "address"
        },
        {
          "internalType": "uint256",
          "name": "amount",
          "type": "uint256"
        },
        {
          "internalType": "address",
          "name": "token",
          "type": "address"
        }
      ],
      "name": "startFlashloan",
      "outputs": [],
      "stateMutability": "nonpayable",
      "type": "function"
    },
    {
      "inputs": [
        {
          "internalType": "uint256",
          "name": "amount",
          "type": "uint256"
        },
        {
          "internalType": "address",
          "name": "token",
          "type": "address"
        },
        {
          "internalType": "bytes",
          "name": "data",
          "type": "bytes"
        }
      ],
      "name": "flashloanCallback",
      "outputs": [],
      "stateMutability": "nonpayable",
      "type": "function"
    }
  ],
  "bytecode": "0x608060405234801561001057600080fd5b5061039e806100206000396000f3fe608060405234801561001057600080fd5b50600436106100365760003560e01c8063a6fc41ab1461003b578063e2ecfa5d14610120575b600080fd5b61011e6004803603606081101561005157600080fd5b8101908080359060200190929190803573ffffffffffffffffffffffffffffffffffffffff1690602001909291908035906020019064010000000081111561009857600080fd5b8201836020820111156100aa57600080fd5b803590602001918460018302840111640100000000831117156100cc57600080fd5b91908080601f016020809104026020016040519081016040528093929190818152602001838380828437600081840152601f19601f82011690508083019250505050505050919291929050505061018e565b005b61018c6004803603606081101561013657600080fd5b81019080803573ffffffffffffffffffffffffffffffffffffffff16906020019092919080359060200190929190803573ffffffffffffffffffffffffffffffffffffffff169060200190929190505050610240565b005b8173ffffffffffffffffffffffffffffffffffffffff1663a9059cbb33856040518363ffffffff1660e01b8152600401808373ffffffffffffffffffffffffffffffffffffffff16815260200182815260200192505050602060405180830381600087803b1580156101ff57600080fd5b505af1158015610213573d6000803e3d6000fd5b505050506040513d602081101561022957600080fd5b810190808051906020019092919050505050505050565b8273ffffffffffffffffffffffffffffffffffffffff16635c26993c308484604051806020016040528060008152506040518563ffffffff1660e01b8152600401808573ffffffffffffffffffffffffffffffffffffffff1681526020018481526020018373ffffffffffffffffffffffffffffffffffffffff16815260200180602001828103825283818151815260200191508051906020019080838360005b838110156102fc5780820151818401526020810190506102e1565b50505050905090810190601f1680156103295780820380516001836020036101000a031916815260200191505b5095505050505050600060405180830381600087803b15801561034b57600080fd5b505af115801561035f573d6000803e3d6000fd5b5050505050505056fea2646970667358221220c2abc34eb4295623ced6e8b651efb2cd664f5cd9dac2b7c6f5b64c72e2698f8564736f6c63430007030033",
  "immutableReferences": {},
  "source": "pragma solidity ^0.7.3;\r\n\r\nimport \"@openzeppelin/contracts/token/ERC20/IERC20.sol\";\r\nimport \"./FlashloanProvider.sol\";\r\nimport \"./IFlashloanUser.sol\";\r\n\r\ncontract FlashloanUser is IFlashloanUser {\r\n    function startFlashloan(\r\n        address flashloan,\r\n        uint256 amount,\r\n        address token\r\n    ) external {\r\n        FlashloanProvider(flashloan).executeFlashloan(address(this), amount, token, bytes(''));\r\n    }\r\n\r\n    function flashloanCallback(uint amount, address token, bytes memory data) override external{\r\n        //do something arbutrafe, liquidation, etc.\r\n\r\n        //Reimburse borrowed tokens\r\n        IERC20(token).transfer(msg.sender, amount);\r\n    }\r\n\r\n\r\n}\r\n",
  "sourcePath": "C:/Users/BinaryHills/Documents/PERSONAL/Blockchain projects/flashloans/contracts/FlashLoanUser.sol",
  "compiler": {
    "name": "solc",
    "version": "0.7.3+commit.9bfce1f6.Emscripten.clang"
  },
  "schemaVersion": "3.3.4",
  "updatedAt": "2021-04-19T18:18:53.488Z",
  "devdoc": {
    "kind": "dev",
    "methods": {},
    "version": 1
  },
  "userdoc": {
    "kind": "user",
    "methods": {},
    "version": 1
  }
}